{
  "_format": "hh-sol-artifact-1",
  "contractName": "NFT",
  "sourceName": "contracts/NFT.sol",
  "abi": [
    {
      "inputs": [],
      "stateMutability": "nonpayable",
      "type": "constructor"
    },
    {
      "anonymous": false,
      "inputs": [
        {
          "indexed": true,
          "internalType": "address",
          "name": "owner",
          "type": "address"
        },
        {
          "indexed": true,
          "internalType": "address",
          "name": "approved",
          "type": "address"
        },
        {
          "indexed": true,
          "internalType": "uint256",
          "name": "tokenId",
          "type": "uint256"
        }
      ],
      "name": "Approval",
      "type": "event"
    },
    {
      "anonymous": false,
      "inputs": [
        {
          "indexed": true,
          "internalType": "address",
          "name": "owner",
          "type": "address"
        },
        {
          "indexed": true,
          "internalType": "address",
          "name": "operator",
          "type": "address"
        },
        {
          "indexed": false,
          "internalType": "bool",
          "name": "approved",
          "type": "bool"
        }
      ],
      "name": "ApprovalForAll",
      "type": "event"
    },
    {
      "anonymous": false,
      "inputs": [
        {
          "indexed": true,
          "internalType": "address",
          "name": "from",
          "type": "address"
        },
        {
          "indexed": true,
          "internalType": "address",
          "name": "to",
          "type": "address"
        },
        {
          "indexed": true,
          "internalType": "uint256",
          "name": "tokenId",
          "type": "uint256"
        }
      ],
      "name": "Transfer",
      "type": "event"
    },
    {
      "inputs": [
        {
          "internalType": "address",
          "name": "to",
          "type": "address"
        },
        {
          "internalType": "uint256",
          "name": "tokenId",
          "type": "uint256"
        }
      ],
      "name": "approve",
      "outputs": [],
      "stateMutability": "nonpayable",
      "type": "function"
    },
    {
      "inputs": [
        {
          "internalType": "address",
          "name": "owner",
          "type": "address"
        }
      ],
      "name": "balanceOf",
      "outputs": [
        {
          "internalType": "uint256",
          "name": "",
          "type": "uint256"
        }
      ],
      "stateMutability": "view",
      "type": "function"
    },
    {
      "inputs": [
        {
          "internalType": "uint256",
          "name": "tokenId",
          "type": "uint256"
        }
      ],
      "name": "getApproved",
      "outputs": [
        {
          "internalType": "address",
          "name": "",
          "type": "address"
        }
      ],
      "stateMutability": "view",
      "type": "function"
    },
    {
      "inputs": [],
      "name": "getTokenCount",
      "outputs": [
        {
          "internalType": "uint256",
          "name": "",
          "type": "uint256"
        }
      ],
      "stateMutability": "view",
      "type": "function"
    },
    {
      "inputs": [
        {
          "internalType": "address",
          "name": "owner",
          "type": "address"
        },
        {
          "internalType": "address",
          "name": "operator",
          "type": "address"
        }
      ],
      "name": "isApprovedForAll",
      "outputs": [
        {
          "internalType": "bool",
          "name": "",
          "type": "bool"
        }
      ],
      "stateMutability": "view",
      "type": "function"
    },
    {
      "inputs": [
        {
          "internalType": "string",
          "name": "_tokenURI",
          "type": "string"
        }
      ],
      "name": "mint",
      "outputs": [
        {
          "internalType": "uint256",
          "name": "",
          "type": "uint256"
        }
      ],
      "stateMutability": "nonpayable",
      "type": "function"
    },
    {
      "inputs": [],
      "name": "name",
      "outputs": [
        {
          "internalType": "string",
          "name": "",
          "type": "string"
        }
      ],
      "stateMutability": "view",
      "type": "function"
    },
    {
      "inputs": [
        {
          "internalType": "uint256",
          "name": "tokenId",
          "type": "uint256"
        }
      ],
      "name": "ownerOf",
      "outputs": [
        {
          "internalType": "address",
          "name": "",
          "type": "address"
        }
      ],
      "stateMutability": "view",
      "type": "function"
    },
    {
      "inputs": [
        {
          "internalType": "address",
          "name": "from",
          "type": "address"
        },
        {
          "internalType": "address",
          "name": "to",
          "type": "address"
        },
        {
          "internalType": "uint256",
          "name": "tokenId",
          "type": "uint256"
        }
      ],
      "name": "safeTransferFrom",
      "outputs": [],
      "stateMutability": "nonpayable",
      "type": "function"
    },
    {
      "inputs": [
        {
          "internalType": "address",
          "name": "from",
          "type": "address"
        },
        {
          "internalType": "address",
          "name": "to",
          "type": "address"
        },
        {
          "internalType": "uint256",
          "name": "tokenId",
          "type": "uint256"
        },
        {
          "internalType": "bytes",
          "name": "_data",
          "type": "bytes"
        }
      ],
      "name": "safeTransferFrom",
      "outputs": [],
      "stateMutability": "nonpayable",
      "type": "function"
    },
    {
      "inputs": [
        {
          "internalType": "address",
          "name": "operator",
          "type": "address"
        },
        {
          "internalType": "bool",
          "name": "approved",
          "type": "bool"
        }
      ],
      "name": "setApprovalForAll",
      "outputs": [],
      "stateMutability": "nonpayable",
      "type": "function"
    },
    {
      "inputs": [
        {
          "internalType": "bytes4",
          "name": "interfaceId",
          "type": "bytes4"
        }
      ],
      "name": "supportsInterface",
      "outputs": [
        {
          "internalType": "bool",
          "name": "",
          "type": "bool"
        }
      ],
      "stateMutability": "view",
      "type": "function"
    },
    {
      "inputs": [],
      "name": "symbol",
      "outputs": [
        {
          "internalType": "string",
          "name": "",
          "type": "string"
        }
      ],
      "stateMutability": "view",
      "type": "function"
    },
    {
      "inputs": [],
      "name": "tokenCount",
      "outputs": [
        {
          "internalType": "uint256",
          "name": "",
          "type": "uint256"
        }
      ],
      "stateMutability": "view",
      "type": "function"
    },
    {
      "inputs": [
        {
          "internalType": "uint256",
          "name": "tokenId",
          "type": "uint256"
        }
      ],
      "name": "tokenURI",
      "outputs": [
        {
          "internalType": "string",
          "name": "",
          "type": "string"
        }
      ],
      "stateMutability": "view",
      "type": "function"
    },
    {
      "inputs": [
        {
          "internalType": "address",
          "name": "from",
          "type": "address"
        },
        {
          "internalType": "address",
          "name": "to",
          "type": "address"
        },
        {
          "internalType": "uint256",
          "name": "tokenId",
          "type": "uint256"
        }
      ],
      "name": "transferFrom",
      "outputs": [],
      "stateMutability": "nonpayable",
      "type": "function"
    }
  ],
  "bytecode": "0x60806040523480156200001157600080fd5b506040518060400160405280600881526020017f44417070204e46540000000000000000000000000000000000000000000000008152506040518060400160405280600481526020017f444150500000000000000000000000000000000000000000000000000000000081525081600090816200008f919062000324565b508060019081620000a1919062000324565b5050506200040b565b600081519050919050565b7f4e487b7100000000000000000000000000000000000000000000000000000000600052604160045260246000fd5b7f4e487b7100000000000000000000000000000000000000000000000000000000600052602260045260246000fd5b600060028204905060018216806200012c57607f821691505b602082108103620001425762000141620000e4565b5b50919050565b60008190508160005260206000209050919050565b60006020601f8301049050919050565b600082821b905092915050565b600060088302620001ac7fffffffffffffffffffffffffffffffffffffffffffffffffffffffffffffffff826200016d565b620001b886836200016d565b95508019841693508086168417925050509392505050565b6000819050919050565b6000819050919050565b600062000205620001ff620001f984620001d0565b620001da565b620001d0565b9050919050565b6000819050919050565b6200022183620001e4565b6200023962000230826200020c565b8484546200017a565b825550505050565b600090565b6200025062000241565b6200025d81848462000216565b505050565b5b8181101562000285576200027960008262000246565b60018101905062000263565b5050565b601f821115620002d4576200029e8162000148565b620002a9846200015d565b81016020851015620002b9578190505b620002d1620002c8856200015d565b83018262000262565b50505b505050565b600082821c905092915050565b6000620002f960001984600802620002d9565b1980831691505092915050565b6000620003148383620002e6565b9150826002028217905092915050565b6200032f82620000aa565b67ffffffffffffffff8111156200034b576200034a620000b5565b5b62000357825462000113565b6200036482828562000289565b600060209050601f8311600181146200039c576000841562000387578287015190505b62000393858262000306565b86555062000403565b601f198416620003ac8662000148565b60005b82811015620003d657848901518255600182019150602085019450602081019050620003af565b86831015620003f65784890151620003f2601f891682620002e6565b8355505b6001600288020188555050505b505050505050565b612e08806200041b6000396000f3fe608060405234801561001057600080fd5b50600436106101005760003560e01c806378a8956711610097578063b88d4fde11610066578063b88d4fde146102ad578063c87b56dd146102c9578063d85d3d27146102f9578063e985e9c51461032957610100565b806378a895671461023757806395d89b41146102555780639f181b5e14610273578063a22cb4651461029157610100565b806323b872dd116100d357806323b872dd1461019f57806342842e0e146101bb5780636352211e146101d757806370a082311461020757610100565b806301ffc9a71461010557806306fdde0314610135578063081812fc14610153578063095ea7b314610183575b600080fd5b61011f600480360381019061011a919061192c565b610359565b60405161012c9190611974565b60405180910390f35b61013d61043b565b60405161014a9190611a1f565b60405180910390f35b61016d60048036038101906101689190611a77565b6104cd565b60405161017a9190611ae5565b60405180910390f35b61019d60048036038101906101989190611b2c565b610552565b005b6101b960048036038101906101b49190611b6c565b610669565b005b6101d560048036038101906101d09190611b6c565b6106c9565b005b6101f160048036038101906101ec9190611a77565b6106e9565b6040516101fe9190611ae5565b60405180910390f35b610221600480360381019061021c9190611bbf565b61079a565b60405161022e9190611bfb565b60405180910390f35b61023f610851565b60405161024c9190611bfb565b60405180910390f35b61025d61085b565b60405161026a9190611a1f565b60405180910390f35b61027b6108ed565b6040516102889190611bfb565b60405180910390f35b6102ab60048036038101906102a69190611c42565b6108f3565b005b6102c760048036038101906102c29190611db7565b610909565b005b6102e360048036038101906102de9190611a77565b61096b565b6040516102f09190611a1f565b60405180910390f35b610313600480360381019061030e9190611edb565b610abc565b6040516103209190611bfb565b60405180910390f35b610343600480360381019061033e9190611f24565b610af8565b6040516103509190611974565b60405180910390f35b60007f80ac58cd000000000000000000000000000000000000000000000000000000007bffffffffffffffffffffffffffffffffffffffffffffffffffffffff1916827bffffffffffffffffffffffffffffffffffffffffffffffffffffffff1916148061042457507f5b5e139f000000000000000000000000000000000000000000000000000000007bffffffffffffffffffffffffffffffffffffffffffffffffffffffff1916827bffffffffffffffffffffffffffffffffffffffffffffffffffffffff1916145b80610434575061043382610b8c565b5b9050919050565b60606000805461044a90611f93565b80601f016020809104026020016040519081016040528092919081815260200182805461047690611f93565b80156104c35780601f10610498576101008083540402835291602001916104c3565b820191906000526020600020905b8154815290600101906020018083116104a657829003601f168201915b5050505050905090565b60006104d882610bf6565b610517576040517f08c379a000000000000000000000000000000000000000000000000000000000815260040161050e90612036565b60405180910390fd5b6004600083815260200190815260200160002060009054906101000a900473ffffffffffffffffffffffffffffffffffffffff169050919050565b600061055d826106e9565b90508073ffffffffffffffffffffffffffffffffffffffff168373ffffffffffffffffffffffffffffffffffffffff16036105cd576040517f08c379a00000000000000000000000000000000000000000000000000000000081526004016105c4906120c8565b60405180910390fd5b8073ffffffffffffffffffffffffffffffffffffffff166105ec610c62565b73ffffffffffffffffffffffffffffffffffffffff16148061061b575061061a81610615610c62565b610af8565b5b61065a576040517f08c379a00000000000000000000000000000000000000000000000000000000081526004016106519061215a565b60405180910390fd5b6106648383610c6a565b505050565b61067a610674610c62565b82610d23565b6106b9576040517f08c379a00000000000000000000000000000000000000000000000000000000081526004016106b0906121ec565b60405180910390fd5b6106c4838383610e01565b505050565b6106e483838360405180602001604052806000815250610909565b505050565b6000806002600084815260200190815260200160002060009054906101000a900473ffffffffffffffffffffffffffffffffffffffff169050600073ffffffffffffffffffffffffffffffffffffffff168173ffffffffffffffffffffffffffffffffffffffff1603610791576040517f08c379a00000000000000000000000000000000000000000000000000000000081526004016107889061227e565b60405180910390fd5b80915050919050565b60008073ffffffffffffffffffffffffffffffffffffffff168273ffffffffffffffffffffffffffffffffffffffff160361080a576040517f08c379a000000000000000000000000000000000000000000000000000000000815260040161080190612310565b60405180910390fd5b600360008373ffffffffffffffffffffffffffffffffffffffff1673ffffffffffffffffffffffffffffffffffffffff168152602001908152602001600020549050919050565b6000600754905090565b60606001805461086a90611f93565b80601f016020809104026020016040519081016040528092919081815260200182805461089690611f93565b80156108e35780601f106108b8576101008083540402835291602001916108e3565b820191906000526020600020905b8154815290600101906020018083116108c657829003601f168201915b5050505050905090565b60075481565b6109056108fe610c62565b8383611067565b5050565b61091a610914610c62565b83610d23565b610959576040517f08c379a0000000000000000000000000000000000000000000000000000000008152600401610950906121ec565b60405180910390fd5b610965848484846111d3565b50505050565b606061097682610bf6565b6109b5576040517f08c379a00000000000000000000000000000000000000000000000000000000081526004016109ac906123a2565b60405180910390fd5b60006006600084815260200190815260200160002080546109d590611f93565b80601f0160208091040260200160405190810160405280929190818152602001828054610a0190611f93565b8015610a4e5780601f10610a2357610100808354040283529160200191610a4e565b820191906000526020600020905b815481529060010190602001808311610a3157829003601f168201915b505050505090506000610a5f61122f565b90506000815103610a74578192505050610ab7565b600082511115610aa9578082604051602001610a919291906123fe565b60405160208183030381529060405292505050610ab7565b610ab284611246565b925050505b919050565b600060076000815480929190610ad190612451565b9190505550610ae2336007546112ed565b610aee6007548361130b565b6007549050919050565b6000600560008473ffffffffffffffffffffffffffffffffffffffff1673ffffffffffffffffffffffffffffffffffffffff16815260200190815260200160002060008373ffffffffffffffffffffffffffffffffffffffff1673ffffffffffffffffffffffffffffffffffffffff16815260200190815260200160002060009054906101000a900460ff16905092915050565b60007f01ffc9a7000000000000000000000000000000000000000000000000000000007bffffffffffffffffffffffffffffffffffffffffffffffffffffffff1916827bffffffffffffffffffffffffffffffffffffffffffffffffffffffff1916149050919050565b60008073ffffffffffffffffffffffffffffffffffffffff166002600084815260200190815260200160002060009054906101000a900473ffffffffffffffffffffffffffffffffffffffff1673ffffffffffffffffffffffffffffffffffffffff1614159050919050565b600033905090565b816004600083815260200190815260200160002060006101000a81548173ffffffffffffffffffffffffffffffffffffffff021916908373ffffffffffffffffffffffffffffffffffffffff160217905550808273ffffffffffffffffffffffffffffffffffffffff16610cdd836106e9565b73ffffffffffffffffffffffffffffffffffffffff167f8c5be1e5ebec7d5bd14f71427d1e84f3dd0314c0f7b2291e5b200ac8c7c3b92560405160405180910390a45050565b6000610d2e82610bf6565b610d6d576040517f08c379a0000000000000000000000000000000000000000000000000000000008152600401610d649061250b565b60405180910390fd5b6000610d78836106e9565b90508073ffffffffffffffffffffffffffffffffffffffff168473ffffffffffffffffffffffffffffffffffffffff161480610de757508373ffffffffffffffffffffffffffffffffffffffff16610dcf846104cd565b73ffffffffffffffffffffffffffffffffffffffff16145b80610df85750610df78185610af8565b5b91505092915050565b8273ffffffffffffffffffffffffffffffffffffffff16610e21826106e9565b73ffffffffffffffffffffffffffffffffffffffff1614610e77576040517f08c379a0000000000000000000000000000000000000000000000000000000008152600401610e6e9061259d565b60405180910390fd5b600073ffffffffffffffffffffffffffffffffffffffff168273ffffffffffffffffffffffffffffffffffffffff1603610ee6576040517f08c379a0000000000000000000000000000000000000000000000000000000008152600401610edd9061262f565b60405180910390fd5b610ef1838383611378565b610efc600082610c6a565b6001600360008573ffffffffffffffffffffffffffffffffffffffff1673ffffffffffffffffffffffffffffffffffffffff1681526020019081526020016000206000828254610f4c919061264f565b925050819055506001600360008473ffffffffffffffffffffffffffffffffffffffff1673ffffffffffffffffffffffffffffffffffffffff1681526020019081526020016000206000828254610fa39190612683565b92505081905550816002600083815260200190815260200160002060006101000a81548173ffffffffffffffffffffffffffffffffffffffff021916908373ffffffffffffffffffffffffffffffffffffffff160217905550808273ffffffffffffffffffffffffffffffffffffffff168473ffffffffffffffffffffffffffffffffffffffff167fddf252ad1be2c89b69c2b068fc378daa952ba7f163c4a11628f55a4df523b3ef60405160405180910390a461106283838361137d565b505050565b8173ffffffffffffffffffffffffffffffffffffffff168373ffffffffffffffffffffffffffffffffffffffff16036110d5576040517f08c379a00000000000000000000000000000000000000000000000000000000081526004016110cc90612703565b60405180910390fd5b80600560008573ffffffffffffffffffffffffffffffffffffffff1673ffffffffffffffffffffffffffffffffffffffff16815260200190815260200160002060008473ffffffffffffffffffffffffffffffffffffffff1673ffffffffffffffffffffffffffffffffffffffff16815260200190815260200160002060006101000a81548160ff0219169083151502179055508173ffffffffffffffffffffffffffffffffffffffff168373ffffffffffffffffffffffffffffffffffffffff167f17307eab39ab6107e8899845ad3d59bd9653f200f220920489ca2b5937696c31836040516111c69190611974565b60405180910390a3505050565b6111de848484610e01565b6111ea84848484611382565b611229576040517f08c379a000000000000000000000000000000000000000000000000000000000815260040161122090612795565b60405180910390fd5b50505050565b606060405180602001604052806000815250905090565b606061125182610bf6565b611290576040517f08c379a000000000000000000000000000000000000000000000000000000000815260040161128790612827565b60405180910390fd5b600061129a61122f565b905060008151116112ba57604051806020016040528060008152506112e5565b806112c484611509565b6040516020016112d59291906123fe565b6040516020818303038152906040525b915050919050565b611307828260405180602001604052806000815250611669565b5050565b61131482610bf6565b611353576040517f08c379a000000000000000000000000000000000000000000000000000000000815260040161134a906128b9565b60405180910390fd5b806006600084815260200190815260200160002090816113739190612a85565b505050565b505050565b505050565b60006113a38473ffffffffffffffffffffffffffffffffffffffff166116c4565b156114fc578373ffffffffffffffffffffffffffffffffffffffff1663150b7a026113cc610c62565b8786866040518563ffffffff1660e01b81526004016113ee9493929190612bac565b6020604051808303816000875af192505050801561142a57506040513d601f19601f820116820180604052508101906114279190612c0d565b60015b6114ac573d806000811461145a576040519150601f19603f3d011682016040523d82523d6000602084013e61145f565b606091505b5060008151036114a4576040517f08c379a000000000000000000000000000000000000000000000000000000000815260040161149b90612795565b60405180910390fd5b805181602001fd5b63150b7a0260e01b7bffffffffffffffffffffffffffffffffffffffffffffffffffffffff1916817bffffffffffffffffffffffffffffffffffffffffffffffffffffffff191614915050611501565b600190505b949350505050565b606060008203611550576040518060400160405280600181526020017f30000000000000000000000000000000000000000000000000000000000000008152509050611664565b600082905060005b6000821461158257808061156b90612451565b915050600a8261157b9190612c69565b9150611558565b60008167ffffffffffffffff81111561159e5761159d611c8c565b5b6040519080825280601f01601f1916602001820160405280156115d05781602001600182028036833780820191505090505b5090505b6000851461165d576001826115e9919061264f565b9150600a856115f89190612c9a565b60306116049190612683565b60f81b81838151811061161a57611619612ccb565b5b60200101907effffffffffffffffffffffffffffffffffffffffffffffffffffffffffffff1916908160001a905350600a856116569190612c69565b94506115d4565b8093505050505b919050565b61167383836116e7565b6116806000848484611382565b6116bf576040517f08c379a00000000000000000000000000000000000000000000000000000000081526004016116b690612795565b60405180910390fd5b505050565b6000808273ffffffffffffffffffffffffffffffffffffffff163b119050919050565b600073ffffffffffffffffffffffffffffffffffffffff168273ffffffffffffffffffffffffffffffffffffffff1603611756576040517f08c379a000000000000000000000000000000000000000000000000000000000815260040161174d90612d46565b60405180910390fd5b61175f81610bf6565b1561179f576040517f08c379a000000000000000000000000000000000000000000000000000000000815260040161179690612db2565b60405180910390fd5b6117ab60008383611378565b6001600360008473ffffffffffffffffffffffffffffffffffffffff1673ffffffffffffffffffffffffffffffffffffffff16815260200190815260200160002060008282546117fb9190612683565b92505081905550816002600083815260200190815260200160002060006101000a81548173ffffffffffffffffffffffffffffffffffffffff021916908373ffffffffffffffffffffffffffffffffffffffff160217905550808273ffffffffffffffffffffffffffffffffffffffff16600073ffffffffffffffffffffffffffffffffffffffff167fddf252ad1be2c89b69c2b068fc378daa952ba7f163c4a11628f55a4df523b3ef60405160405180910390a46118bc6000838361137d565b5050565b6000604051905090565b600080fd5b600080fd5b60007fffffffff0000000000000000000000000000000000000000000000000000000082169050919050565b611909816118d4565b811461191457600080fd5b50565b60008135905061192681611900565b92915050565b600060208284031215611942576119416118ca565b5b600061195084828501611917565b91505092915050565b60008115159050919050565b61196e81611959565b82525050565b60006020820190506119896000830184611965565b92915050565b600081519050919050565b600082825260208201905092915050565b60005b838110156119c95780820151818401526020810190506119ae565b60008484015250505050565b6000601f19601f8301169050919050565b60006119f18261198f565b6119fb818561199a565b9350611a0b8185602086016119ab565b611a14816119d5565b840191505092915050565b60006020820190508181036000830152611a3981846119e6565b905092915050565b6000819050919050565b611a5481611a41565b8114611a5f57600080fd5b50565b600081359050611a7181611a4b565b92915050565b600060208284031215611a8d57611a8c6118ca565b5b6000611a9b84828501611a62565b91505092915050565b600073ffffffffffffffffffffffffffffffffffffffff82169050919050565b6000611acf82611aa4565b9050919050565b611adf81611ac4565b82525050565b6000602082019050611afa6000830184611ad6565b92915050565b611b0981611ac4565b8114611b1457600080fd5b50565b600081359050611b2681611b00565b92915050565b60008060408385031215611b4357611b426118ca565b5b6000611b5185828601611b17565b9250506020611b6285828601611a62565b9150509250929050565b600080600060608486031215611b8557611b846118ca565b5b6000611b9386828701611b17565b9350506020611ba486828701611b17565b9250506040611bb586828701611a62565b9150509250925092565b600060208284031215611bd557611bd46118ca565b5b6000611be384828501611b17565b91505092915050565b611bf581611a41565b82525050565b6000602082019050611c106000830184611bec565b92915050565b611c1f81611959565b8114611c2a57600080fd5b50565b600081359050611c3c81611c16565b92915050565b60008060408385031215611c5957611c586118ca565b5b6000611c6785828601611b17565b9250506020611c7885828601611c2d565b9150509250929050565b600080fd5b600080fd5b7f4e487b7100000000000000000000000000000000000000000000000000000000600052604160045260246000fd5b611cc4826119d5565b810181811067ffffffffffffffff82111715611ce357611ce2611c8c565b5b80604052505050565b6000611cf66118c0565b9050611d028282611cbb565b919050565b600067ffffffffffffffff821115611d2257611d21611c8c565b5b611d2b826119d5565b9050602081019050919050565b82818337600083830152505050565b6000611d5a611d5584611d07565b611cec565b905082815260208101848484011115611d7657611d75611c87565b5b611d81848285611d38565b509392505050565b600082601f830112611d9e57611d9d611c82565b5b8135611dae848260208601611d47565b91505092915050565b60008060008060808587031215611dd157611dd06118ca565b5b6000611ddf87828801611b17565b9450506020611df087828801611b17565b9350506040611e0187828801611a62565b925050606085013567ffffffffffffffff811115611e2257611e216118cf565b5b611e2e87828801611d89565b91505092959194509250565b600067ffffffffffffffff821115611e5557611e54611c8c565b5b611e5e826119d5565b9050602081019050919050565b6000611e7e611e7984611e3a565b611cec565b905082815260208101848484011115611e9a57611e99611c87565b5b611ea5848285611d38565b509392505050565b600082601f830112611ec257611ec1611c82565b5b8135611ed2848260208601611e6b565b91505092915050565b600060208284031215611ef157611ef06118ca565b5b600082013567ffffffffffffffff811115611f0f57611f0e6118cf565b5b611f1b84828501611ead565b91505092915050565b60008060408385031215611f3b57611f3a6118ca565b5b6000611f4985828601611b17565b9250506020611f5a85828601611b17565b9150509250929050565b7f4e487b7100000000000000000000000000000000000000000000000000000000600052602260045260246000fd5b60006002820490506001821680611fab57607f821691505b602082108103611fbe57611fbd611f64565b5b50919050565b7f4552433732313a20617070726f76656420717565727920666f72206e6f6e657860008201527f697374656e7420746f6b656e0000000000000000000000000000000000000000602082015250565b6000612020602c8361199a565b915061202b82611fc4565b604082019050919050565b6000602082019050818103600083015261204f81612013565b9050919050565b7f4552433732313a20617070726f76616c20746f2063757272656e74206f776e6560008201527f7200000000000000000000000000000000000000000000000000000000000000602082015250565b60006120b260218361199a565b91506120bd82612056565b604082019050919050565b600060208201905081810360008301526120e1816120a5565b9050919050565b7f4552433732313a20617070726f76652063616c6c6572206973206e6f74206f7760008201527f6e6572206e6f7220617070726f76656420666f7220616c6c0000000000000000602082015250565b600061214460388361199a565b915061214f826120e8565b604082019050919050565b6000602082019050818103600083015261217381612137565b9050919050565b7f4552433732313a207472616e736665722063616c6c6572206973206e6f74206f60008201527f776e6572206e6f7220617070726f766564000000000000000000000000000000602082015250565b60006121d660318361199a565b91506121e18261217a565b604082019050919050565b60006020820190508181036000830152612205816121c9565b9050919050565b7f4552433732313a206f776e657220717565727920666f72206e6f6e657869737460008201527f656e7420746f6b656e0000000000000000000000000000000000000000000000602082015250565b600061226860298361199a565b91506122738261220c565b604082019050919050565b600060208201905081810360008301526122978161225b565b9050919050565b7f4552433732313a2062616c616e636520717565727920666f7220746865207a6560008201527f726f206164647265737300000000000000000000000000000000000000000000602082015250565b60006122fa602a8361199a565b91506123058261229e565b604082019050919050565b60006020820190508181036000830152612329816122ed565b9050919050565b7f45524337323155524953746f726167653a2055524920717565727920666f722060008201527f6e6f6e6578697374656e7420746f6b656e000000000000000000000000000000602082015250565b600061238c60318361199a565b915061239782612330565b604082019050919050565b600060208201905081810360008301526123bb8161237f565b9050919050565b600081905092915050565b60006123d88261198f565b6123e281856123c2565b93506123f28185602086016119ab565b80840191505092915050565b600061240a82856123cd565b915061241682846123cd565b91508190509392505050565b7f4e487b7100000000000000000000000000000000000000000000000000000000600052601160045260246000fd5b600061245c82611a41565b91507fffffffffffffffffffffffffffffffffffffffffffffffffffffffffffffffff820361248e5761248d612422565b5b600182019050919050565b7f4552433732313a206f70657261746f7220717565727920666f72206e6f6e657860008201527f697374656e7420746f6b656e0000000000000000000000000000000000000000602082015250565b60006124f5602c8361199a565b915061250082612499565b604082019050919050565b60006020820190508181036000830152612524816124e8565b9050919050565b7f4552433732313a207472616e736665722066726f6d20696e636f72726563742060008201527f6f776e6572000000000000000000000000000000000000000000000000000000602082015250565b600061258760258361199a565b91506125928261252b565b604082019050919050565b600060208201905081810360008301526125b68161257a565b9050919050565b7f4552433732313a207472616e7366657220746f20746865207a65726f2061646460008201527f7265737300000000000000000000000000000000000000000000000000000000602082015250565b600061261960248361199a565b9150612624826125bd565b604082019050919050565b600060208201905081810360008301526126488161260c565b9050919050565b600061265a82611a41565b915061266583611a41565b925082820390508181111561267d5761267c612422565b5b92915050565b600061268e82611a41565b915061269983611a41565b92508282019050808211156126b1576126b0612422565b5b92915050565b7f4552433732313a20617070726f766520746f2063616c6c657200000000000000600082015250565b60006126ed60198361199a565b91506126f8826126b7565b602082019050919050565b6000602082019050818103600083015261271c816126e0565b9050919050565b7f4552433732313a207472616e7366657220746f206e6f6e20455243373231526560008201527f63656976657220696d706c656d656e7465720000000000000000000000000000602082015250565b600061277f60328361199a565b915061278a82612723565b604082019050919050565b600060208201905081810360008301526127ae81612772565b9050919050565b7f4552433732314d657461646174613a2055524920717565727920666f72206e6f60008201527f6e6578697374656e7420746f6b656e0000000000000000000000000000000000602082015250565b6000612811602f8361199a565b915061281c826127b5565b604082019050919050565b6000602082019050818103600083015261284081612804565b9050919050565b7f45524337323155524953746f726167653a2055524920736574206f66206e6f6e60008201527f6578697374656e7420746f6b656e000000000000000000000000000000000000602082015250565b60006128a3602e8361199a565b91506128ae82612847565b604082019050919050565b600060208201905081810360008301526128d281612896565b9050919050565b60008190508160005260206000209050919050565b60006020601f8301049050919050565b600082821b905092915050565b60006008830261293b7fffffffffffffffffffffffffffffffffffffffffffffffffffffffffffffffff826128fe565b61294586836128fe565b95508019841693508086168417925050509392505050565b6000819050919050565b600061298261297d61297884611a41565b61295d565b611a41565b9050919050565b6000819050919050565b61299c83612967565b6129b06129a882612989565b84845461290b565b825550505050565b600090565b6129c56129b8565b6129d0818484612993565b505050565b5b818110156129f4576129e96000826129bd565b6001810190506129d6565b5050565b601f821115612a3957612a0a816128d9565b612a13846128ee565b81016020851015612a22578190505b612a36612a2e856128ee565b8301826129d5565b50505b505050565b600082821c905092915050565b6000612a5c60001984600802612a3e565b1980831691505092915050565b6000612a758383612a4b565b9150826002028217905092915050565b612a8e8261198f565b67ffffffffffffffff811115612aa757612aa6611c8c565b5b612ab18254611f93565b612abc8282856129f8565b600060209050601f831160018114612aef5760008415612add578287015190505b612ae78582612a69565b865550612b4f565b601f198416612afd866128d9565b60005b82811015612b2557848901518255600182019150602085019450602081019050612b00565b86831015612b425784890151612b3e601f891682612a4b565b8355505b6001600288020188555050505b505050505050565b600081519050919050565b600082825260208201905092915050565b6000612b7e82612b57565b612b888185612b62565b9350612b988185602086016119ab565b612ba1816119d5565b840191505092915050565b6000608082019050612bc16000830187611ad6565b612bce6020830186611ad6565b612bdb6040830185611bec565b8181036060830152612bed8184612b73565b905095945050505050565b600081519050612c0781611900565b92915050565b600060208284031215612c2357612c226118ca565b5b6000612c3184828501612bf8565b91505092915050565b7f4e487b7100000000000000000000000000000000000000000000000000000000600052601260045260246000fd5b6000612c7482611a41565b9150612c7f83611a41565b925082612c8f57612c8e612c3a565b5b828204905092915050565b6000612ca582611a41565b9150612cb083611a41565b925082612cc057612cbf612c3a565b5b828206905092915050565b7f4e487b7100000000000000000000000000000000000000000000000000000000600052603260045260246000fd5b7f4552433732313a206d696e7420746f20746865207a65726f2061646472657373600082015250565b6000612d3060208361199a565b9150612d3b82612cfa565b602082019050919050565b60006020820190508181036000830152612d5f81612d23565b9050919050565b7f4552433732313a20746f6b656e20616c7265616479206d696e74656400000000600082015250565b6000612d9c601c8361199a565b9150612da782612d66565b602082019050919050565b60006020820190508181036000830152612dcb81612d8f565b905091905056fea2646970667358221220aadd00af88c927932d23cff08cbeb29a5eaace195ee0d1cbe36394e90178632564736f6c63430008120033",
  "linkReferences": {},
  "deployedLinkReferences": {}
}