{
  "_format": "hh-sol-artifact-1",
  "contractName": "Marketplace",
  "sourceName": "contracts/Marketplace.sol",
  "abi": [
    {
      "inputs": [
        {
          "internalType": "uint256",
          "name": "_feePercent",
          "type": "uint256"
        }
      ],
      "stateMutability": "nonpayable",
      "type": "constructor"
    },
    {
      "anonymous": false,
      "inputs": [
        {
          "indexed": false,
          "internalType": "uint256",
          "name": "itemId",
          "type": "uint256"
        },
        {
          "indexed": true,
          "internalType": "address",
          "name": "nft",
          "type": "address"
        },
        {
          "indexed": false,
          "internalType": "uint256",
          "name": "tokenId",
          "type": "uint256"
        },
        {
          "indexed": false,
          "internalType": "uint256",
          "name": "price",
          "type": "uint256"
        },
        {
          "indexed": true,
          "internalType": "address",
          "name": "seller",
          "type": "address"
        },
        {
          "indexed": true,
          "internalType": "address",
          "name": "buyer",
          "type": "address"
        }
      ],
      "name": "Bought",
      "type": "event"
    },
    {
      "anonymous": false,
      "inputs": [
        {
          "indexed": false,
          "internalType": "uint256",
          "name": "itemId",
          "type": "uint256"
        },
        {
          "indexed": true,
          "internalType": "address",
          "name": "nft",
          "type": "address"
        },
        {
          "indexed": false,
          "internalType": "uint256",
          "name": "tokenId",
          "type": "uint256"
        },
        {
          "indexed": false,
          "internalType": "uint256",
          "name": "price",
          "type": "uint256"
        },
        {
          "indexed": true,
          "internalType": "address",
          "name": "seller",
          "type": "address"
        }
      ],
      "name": "Offered",
      "type": "event"
    },
    {
      "inputs": [],
      "name": "feeAccount",
      "outputs": [
        {
          "internalType": "address payable",
          "name": "",
          "type": "address"
        }
      ],
      "stateMutability": "view",
      "type": "function"
    },
    {
      "inputs": [],
      "name": "feePercent",
      "outputs": [
        {
          "internalType": "uint256",
          "name": "",
          "type": "uint256"
        }
      ],
      "stateMutability": "view",
      "type": "function"
    },
    {
      "inputs": [],
      "name": "getItemCount",
      "outputs": [
        {
          "internalType": "uint256",
          "name": "",
          "type": "uint256"
        }
      ],
      "stateMutability": "view",
      "type": "function"
    },
    {
      "inputs": [
        {
          "internalType": "uint256",
          "name": "_itemId",
          "type": "uint256"
        }
      ],
      "name": "getTotalPrice",
      "outputs": [
        {
          "internalType": "uint256",
          "name": "",
          "type": "uint256"
        }
      ],
      "stateMutability": "view",
      "type": "function"
    },
    {
      "inputs": [],
      "name": "getTotalPriceTwo",
      "outputs": [
        {
          "internalType": "uint256",
          "name": "",
          "type": "uint256"
        }
      ],
      "stateMutability": "view",
      "type": "function"
    },
    {
      "inputs": [],
      "name": "itemCount",
      "outputs": [
        {
          "internalType": "uint256",
          "name": "",
          "type": "uint256"
        }
      ],
      "stateMutability": "view",
      "type": "function"
    },
    {
      "inputs": [
        {
          "internalType": "uint256",
          "name": "",
          "type": "uint256"
        }
      ],
      "name": "items",
      "outputs": [
        {
          "internalType": "uint256",
          "name": "itemId",
          "type": "uint256"
        },
        {
          "internalType": "contract IERC721",
          "name": "nft",
          "type": "address"
        },
        {
          "internalType": "uint256",
          "name": "tokenId",
          "type": "uint256"
        },
        {
          "internalType": "uint256",
          "name": "price",
          "type": "uint256"
        },
        {
          "internalType": "address payable",
          "name": "seller",
          "type": "address"
        },
        {
          "internalType": "bool",
          "name": "sold",
          "type": "bool"
        }
      ],
      "stateMutability": "view",
      "type": "function"
    },
    {
      "inputs": [
        {
          "internalType": "contract IERC721",
          "name": "_nft",
          "type": "address"
        },
        {
          "internalType": "uint256",
          "name": "_tokenId",
          "type": "uint256"
        },
        {
          "internalType": "uint256",
          "name": "_price",
          "type": "uint256"
        }
      ],
      "name": "makeItem",
      "outputs": [],
      "stateMutability": "nonpayable",
      "type": "function"
    },
    {
      "inputs": [
        {
          "internalType": "uint256",
          "name": "_itemId",
          "type": "uint256"
        }
      ],
      "name": "purchaseItem",
      "outputs": [],
      "stateMutability": "payable",
      "type": "function"
    },
    {
      "inputs": [
        {
          "internalType": "uint256",
          "name": "_itemId",
          "type": "uint256"
        }
      ],
      "name": "setTotalPriceTwo",
      "outputs": [],
      "stateMutability": "nonpayable",
      "type": "function"
    },
    {
      "inputs": [],
      "name": "tPrice",
      "outputs": [
        {
          "internalType": "uint256",
          "name": "",
          "type": "uint256"
        }
      ],
      "stateMutability": "view",
      "type": "function"
    }
  ],
  "bytecode": "0x60c060405234801561001057600080fd5b506040516200122438038062001224833981810160405281019061003491906100b9565b60016000819055503373ffffffffffffffffffffffffffffffffffffffff1660808173ffffffffffffffffffffffffffffffffffffffff16815250508060a08181525050506100e6565b600080fd5b6000819050919050565b61009681610083565b81146100a157600080fd5b50565b6000815190506100b38161008d565b92915050565b6000602082840312156100cf576100ce61007e565b5b60006100dd848285016100a4565b91505092915050565b60805160a05161110362000121600039600081816102d00152818161038101526103e201526000818161029c01526105c601526111036000f3fe60806040526004361061009c5760003560e01c8063bfb231d211610064578063bfb231d214610178578063ca7dd375146101ba578063d17f00ae146101f7578063d38ea5bf14610220578063efac45461461023c578063fa00afc7146102675761009c565b80630923f6f8146100a157806365e17c9d146100cc5780636bfb0d01146100f75780637749cf23146101225780637fd6f15c1461014d575b600080fd5b3480156100ad57600080fd5b506100b6610290565b6040516100c39190610abb565b60405180910390f35b3480156100d857600080fd5b506100e161029a565b6040516100ee9190610b17565b60405180910390f35b34801561010357600080fd5b5061010c6102be565b6040516101199190610abb565b60405180910390f35b34801561012e57600080fd5b506101376102c4565b6040516101449190610abb565b60405180910390f35b34801561015957600080fd5b506101626102ce565b60405161016f9190610abb565b60405180910390f35b34801561018457600080fd5b5061019f600480360381019061019a9190610b63565b6102f2565b6040516101b196959493929190610c0a565b60405180910390f35b3480156101c657600080fd5b506101e160048036038101906101dc9190610b63565b61037b565b6040516101ee9190610abb565b60405180910390f35b34801561020357600080fd5b5061021e60048036038101906102199190610b63565b6103de565b005b61023a60048036038101906102359190610b63565b610441565b005b34801561024857600080fd5b506102516107cb565b60405161025e9190610abb565b60405180910390f35b34801561027357600080fd5b5061028e60048036038101906102899190610cbb565b6107d1565b005b6000600254905090565b7f000000000000000000000000000000000000000000000000000000000000000081565b60015481565b6000600154905090565b7f000000000000000000000000000000000000000000000000000000000000000081565b60036020528060005260406000206000915090508060000154908060010160009054906101000a900473ffffffffffffffffffffffffffffffffffffffff16908060020154908060030154908060040160009054906101000a900473ffffffffffffffffffffffffffffffffffffffff16908060040160149054906101000a900460ff16905086565b600060647f000000000000000000000000000000000000000000000000000000000000000060646103ac9190610d3d565b60036000858152602001908152602001600020600301546103cd9190610d71565b6103d79190610de2565b9050919050565b60647f0000000000000000000000000000000000000000000000000000000000000000606461040d9190610d3d565b600360008481526020019081526020016000206003015461042e9190610d71565b6104389190610de2565b60028190555050565b600260005403610486576040517f08c379a000000000000000000000000000000000000000000000000000000000815260040161047d90610e70565b60405180910390fd5b600260008190555060006104998261037b565b905060006003600084815260200190815260200160002090506000831180156104c457506001548311155b610503576040517f08c379a00000000000000000000000000000000000000000000000000000000081526004016104fa90610edc565b60405180910390fd5b8060040160149054906101000a900460ff1615610555576040517f08c379a000000000000000000000000000000000000000000000000000000000815260040161054c90610f48565b60405180910390fd5b8060040160009054906101000a900473ffffffffffffffffffffffffffffffffffffffff1673ffffffffffffffffffffffffffffffffffffffff166108fc82600301549081150290604051600060405180830381858888f193505050501580156105c3573d6000803e3d6000fd5b507f000000000000000000000000000000000000000000000000000000000000000073ffffffffffffffffffffffffffffffffffffffff166108fc82600301548461060e9190610f68565b9081150290604051600060405180830381858888f19350505050158015610639573d6000803e3d6000fd5b5060018160040160146101000a81548160ff0219169083151502179055508060010160009054906101000a900473ffffffffffffffffffffffffffffffffffffffff1673ffffffffffffffffffffffffffffffffffffffff166323b872dd303384600201546040518463ffffffff1660e01b81526004016106bc93929190610fab565b600060405180830381600087803b1580156106d657600080fd5b505af11580156106ea573d6000803e3d6000fd5b505050503373ffffffffffffffffffffffffffffffffffffffff168160040160009054906101000a900473ffffffffffffffffffffffffffffffffffffffff1673ffffffffffffffffffffffffffffffffffffffff168260010160009054906101000a900473ffffffffffffffffffffffffffffffffffffffff1673ffffffffffffffffffffffffffffffffffffffff167f8b4c9c8a607d67b321582dd8461041b1dc2ceeca70c8b7f37f8e02095cf2e76d86856002015486600301546040516107b693929190610fe2565b60405180910390a45050600160008190555050565b60025481565b600260005403610816576040517f08c379a000000000000000000000000000000000000000000000000000000000815260040161080d90610e70565b60405180910390fd5b600260008190555060008111610861576040517f08c379a000000000000000000000000000000000000000000000000000000000815260040161085890611065565b60405180910390fd5b6001600081548092919061087490611085565b91905055508273ffffffffffffffffffffffffffffffffffffffff166323b872dd3330856040518463ffffffff1660e01b81526004016108b693929190610fab565b600060405180830381600087803b1580156108d057600080fd5b505af11580156108e4573d6000803e3d6000fd5b505050506040518060c0016040528060015481526020018473ffffffffffffffffffffffffffffffffffffffff1681526020018381526020018281526020013373ffffffffffffffffffffffffffffffffffffffff168152602001600015158152506003600060015481526020019081526020016000206000820151816000015560208201518160010160006101000a81548173ffffffffffffffffffffffffffffffffffffffff021916908373ffffffffffffffffffffffffffffffffffffffff160217905550604082015181600201556060820151816003015560808201518160040160006101000a81548173ffffffffffffffffffffffffffffffffffffffff021916908373ffffffffffffffffffffffffffffffffffffffff16021790555060a08201518160040160146101000a81548160ff0219169083151502179055509050503373ffffffffffffffffffffffffffffffffffffffff168373ffffffffffffffffffffffffffffffffffffffff167f655a0cf9c8db81512be9a76dc1c5ae5380b8816ce6ad659cd61b715e2999d59a6001548585604051610a8d93929190610fe2565b60405180910390a36001600081905550505050565b6000819050919050565b610ab581610aa2565b82525050565b6000602082019050610ad06000830184610aac565b92915050565b600073ffffffffffffffffffffffffffffffffffffffff82169050919050565b6000610b0182610ad6565b9050919050565b610b1181610af6565b82525050565b6000602082019050610b2c6000830184610b08565b92915050565b600080fd5b610b4081610aa2565b8114610b4b57600080fd5b50565b600081359050610b5d81610b37565b92915050565b600060208284031215610b7957610b78610b32565b5b6000610b8784828501610b4e565b91505092915050565b6000819050919050565b6000610bb5610bb0610bab84610ad6565b610b90565b610ad6565b9050919050565b6000610bc782610b9a565b9050919050565b6000610bd982610bbc565b9050919050565b610be981610bce565b82525050565b60008115159050919050565b610c0481610bef565b82525050565b600060c082019050610c1f6000830189610aac565b610c2c6020830188610be0565b610c396040830187610aac565b610c466060830186610aac565b610c536080830185610b08565b610c6060a0830184610bfb565b979650505050505050565b6000610c7682610ad6565b9050919050565b6000610c8882610c6b565b9050919050565b610c9881610c7d565b8114610ca357600080fd5b50565b600081359050610cb581610c8f565b92915050565b600080600060608486031215610cd457610cd3610b32565b5b6000610ce286828701610ca6565b9350506020610cf386828701610b4e565b9250506040610d0486828701610b4e565b9150509250925092565b7f4e487b7100000000000000000000000000000000000000000000000000000000600052601160045260246000fd5b6000610d4882610aa2565b9150610d5383610aa2565b9250828201905080821115610d6b57610d6a610d0e565b5b92915050565b6000610d7c82610aa2565b9150610d8783610aa2565b9250828202610d9581610aa2565b91508282048414831517610dac57610dab610d0e565b5b5092915050565b7f4e487b7100000000000000000000000000000000000000000000000000000000600052601260045260246000fd5b6000610ded82610aa2565b9150610df883610aa2565b925082610e0857610e07610db3565b5b828204905092915050565b600082825260208201905092915050565b7f5265656e7472616e637947756172643a207265656e7472616e742063616c6c00600082015250565b6000610e5a601f83610e13565b9150610e6582610e24565b602082019050919050565b60006020820190508181036000830152610e8981610e4d565b9050919050565b7f6974656d20646f65736e27742065786973740000000000000000000000000000600082015250565b6000610ec6601283610e13565b9150610ed182610e90565b602082019050919050565b60006020820190508181036000830152610ef581610eb9565b9050919050565b7f6974656d20616c726561647920736f6c64000000000000000000000000000000600082015250565b6000610f32601183610e13565b9150610f3d82610efc565b602082019050919050565b60006020820190508181036000830152610f6181610f25565b9050919050565b6000610f7382610aa2565b9150610f7e83610aa2565b9250828203905081811115610f9657610f95610d0e565b5b92915050565b610fa581610c6b565b82525050565b6000606082019050610fc06000830186610f9c565b610fcd6020830185610f9c565b610fda6040830184610aac565b949350505050565b6000606082019050610ff76000830186610aac565b6110046020830185610aac565b6110116040830184610aac565b949350505050565b7f5072696365206d7573742062652067726561746572207468616e207a65726f00600082015250565b600061104f601f83610e13565b915061105a82611019565b602082019050919050565b6000602082019050818103600083015261107e81611042565b9050919050565b600061109082610aa2565b91507fffffffffffffffffffffffffffffffffffffffffffffffffffffffffffffffff82036110c2576110c1610d0e565b5b60018201905091905056fea26469706673582212202264047aa863aab6030e483500274ce80515ee99b91a905a7b28db6628f2ae0164736f6c63430008120033",
  "linkReferences": {},
  "deployedLinkReferences": {}
}